{
  "contractName": "RESolnSquareVerifier",
  "abi": [
    {
      "inputs": [
        {
          "internalType": "address",
          "name": "verifierAddress",
          "type": "address"
        },
        {
          "internalType": "string",
          "name": "name",
          "type": "string"
        },
        {
          "internalType": "string",
          "name": "symbol",
          "type": "string"
        }
      ],
      "payable": false,
      "stateMutability": "nonpayable",
      "type": "constructor"
    },
    {
      "anonymous": false,
      "inputs": [
        {
          "indexed": false,
          "internalType": "uint256",
          "name": "tokenId",
          "type": "uint256"
        }
      ],
      "name": "Added",
      "type": "event"
    },
    {
      "anonymous": false,
      "inputs": [
        {
          "indexed": true,
          "internalType": "address",
          "name": "owner",
          "type": "address"
        },
        {
          "indexed": true,
          "internalType": "address",
          "name": "approved",
          "type": "address"
        },
        {
          "indexed": true,
          "internalType": "uint256",
          "name": "tokenId",
          "type": "uint256"
        }
      ],
      "name": "Approval",
      "type": "event"
    },
    {
      "anonymous": false,
      "inputs": [
        {
          "indexed": true,
          "internalType": "address",
          "name": "owner",
          "type": "address"
        },
        {
          "indexed": true,
          "internalType": "address",
          "name": "operator",
          "type": "address"
        },
        {
          "indexed": false,
          "internalType": "bool",
          "name": "approved",
          "type": "bool"
        }
      ],
      "name": "ApprovalForAll",
      "type": "event"
    },
    {
      "anonymous": false,
      "inputs": [
        {
          "indexed": false,
          "internalType": "address",
          "name": "newOwner",
          "type": "address"
        },
        {
          "indexed": false,
          "internalType": "uint256",
          "name": "timestamp",
          "type": "uint256"
        }
      ],
      "name": "OwnershipChanged",
      "type": "event"
    },
    {
      "anonymous": false,
      "inputs": [
        {
          "indexed": false,
          "internalType": "address",
          "name": "triggerer",
          "type": "address"
        }
      ],
      "name": "Paused",
      "type": "event"
    },
    {
      "anonymous": false,
      "inputs": [
        {
          "indexed": true,
          "internalType": "address",
          "name": "from",
          "type": "address"
        },
        {
          "indexed": true,
          "internalType": "address",
          "name": "to",
          "type": "address"
        },
        {
          "indexed": true,
          "internalType": "uint256",
          "name": "tokenId",
          "type": "uint256"
        }
      ],
      "name": "Transfer",
      "type": "event"
    },
    {
      "anonymous": false,
      "inputs": [
        {
          "indexed": false,
          "internalType": "address",
          "name": "triggerer",
          "type": "address"
        }
      ],
      "name": "Unpaused",
      "type": "event"
    },
    {
      "constant": false,
      "inputs": [
        {
          "internalType": "bytes32",
          "name": "_myid",
          "type": "bytes32"
        },
        {
          "internalType": "string",
          "name": "_result",
          "type": "string"
        }
      ],
      "name": "__callback",
      "outputs": [],
      "payable": false,
      "stateMutability": "nonpayable",
      "type": "function"
    },
    {
      "constant": false,
      "inputs": [
        {
          "internalType": "bytes32",
          "name": "_myid",
          "type": "bytes32"
        },
        {
          "internalType": "string",
          "name": "_result",
          "type": "string"
        },
        {
          "internalType": "bytes",
          "name": "_proof",
          "type": "bytes"
        }
      ],
      "name": "__callback",
      "outputs": [],
      "payable": false,
      "stateMutability": "nonpayable",
      "type": "function"
    },
    {
      "constant": false,
      "inputs": [
        {
          "internalType": "address",
          "name": "to",
          "type": "address"
        },
        {
          "internalType": "uint256",
          "name": "tokenId",
          "type": "uint256"
        }
      ],
      "name": "approve",
      "outputs": [],
      "payable": false,
      "stateMutability": "nonpayable",
      "type": "function"
    },
    {
      "constant": true,
      "inputs": [
        {
          "internalType": "address",
          "name": "owner",
          "type": "address"
        }
      ],
      "name": "balanceOf",
      "outputs": [
        {
          "internalType": "uint256",
          "name": "",
          "type": "uint256"
        }
      ],
      "payable": false,
      "stateMutability": "view",
      "type": "function"
    },
    {
      "constant": true,
      "inputs": [],
      "name": "baseTokenUri",
      "outputs": [
        {
          "internalType": "string",
          "name": "",
          "type": "string"
        }
      ],
      "payable": false,
      "stateMutability": "view",
      "type": "function"
    },
    {
      "constant": true,
      "inputs": [],
      "name": "contractName",
      "outputs": [
        {
          "internalType": "string",
          "name": "",
          "type": "string"
        }
      ],
      "payable": false,
      "stateMutability": "view",
      "type": "function"
    },
    {
      "constant": true,
      "inputs": [],
      "name": "contractSymbol",
      "outputs": [
        {
          "internalType": "string",
          "name": "",
          "type": "string"
        }
      ],
      "payable": false,
      "stateMutability": "view",
      "type": "function"
    },
    {
      "constant": true,
      "inputs": [
        {
          "internalType": "uint256",
          "name": "tokenId",
          "type": "uint256"
        }
      ],
      "name": "getApproved",
      "outputs": [
        {
          "internalType": "address",
          "name": "",
          "type": "address"
        }
      ],
      "payable": false,
      "stateMutability": "view",
      "type": "function"
    },
    {
      "constant": true,
      "inputs": [],
      "name": "getOwner",
      "outputs": [
        {
          "internalType": "address",
          "name": "",
          "type": "address"
        }
      ],
      "payable": false,
      "stateMutability": "view",
      "type": "function"
    },
    {
      "constant": true,
      "inputs": [
        {
          "internalType": "address",
          "name": "owner",
          "type": "address"
        },
        {
          "internalType": "address",
          "name": "operator",
          "type": "address"
        }
      ],
      "name": "isApprovedForAll",
      "outputs": [
        {
          "internalType": "bool",
          "name": "",
          "type": "bool"
        }
      ],
      "payable": false,
      "stateMutability": "view",
      "type": "function"
    },
    {
      "constant": false,
      "inputs": [
        {
          "internalType": "address",
          "name": "to",
          "type": "address"
        },
        {
          "internalType": "uint256",
          "name": "tokenId",
          "type": "uint256"
        }
      ],
      "name": "mint",
      "outputs": [
        {
          "internalType": "bool",
          "name": "",
          "type": "bool"
        }
      ],
      "payable": false,
      "stateMutability": "nonpayable",
      "type": "function"
    },
    {
      "constant": true,
      "inputs": [
        {
          "internalType": "uint256",
          "name": "tokenId",
          "type": "uint256"
        }
      ],
      "name": "ownerOf",
      "outputs": [
        {
          "internalType": "address",
          "name": "",
          "type": "address"
        }
      ],
      "payable": false,
      "stateMutability": "view",
      "type": "function"
    },
    {
      "constant": false,
      "inputs": [
        {
          "internalType": "address",
          "name": "from",
          "type": "address"
        },
        {
          "internalType": "address",
          "name": "to",
          "type": "address"
        },
        {
          "internalType": "uint256",
          "name": "tokenId",
          "type": "uint256"
        }
      ],
      "name": "safeTransferFrom",
      "outputs": [],
      "payable": false,
      "stateMutability": "nonpayable",
      "type": "function"
    },
    {
      "constant": false,
      "inputs": [
        {
          "internalType": "address",
          "name": "from",
          "type": "address"
        },
        {
          "internalType": "address",
          "name": "to",
          "type": "address"
        },
        {
          "internalType": "uint256",
          "name": "tokenId",
          "type": "uint256"
        },
        {
          "internalType": "bytes",
          "name": "_data",
          "type": "bytes"
        }
      ],
      "name": "safeTransferFrom",
      "outputs": [],
      "payable": false,
      "stateMutability": "nonpayable",
      "type": "function"
    },
    {
      "constant": false,
      "inputs": [
        {
          "internalType": "address",
          "name": "to",
          "type": "address"
        },
        {
          "internalType": "bool",
          "name": "approved",
          "type": "bool"
        }
      ],
      "name": "setApprovalForAll",
      "outputs": [],
      "payable": false,
      "stateMutability": "nonpayable",
      "type": "function"
    },
    {
      "constant": false,
      "inputs": [
        {
          "internalType": "bool",
          "name": "paused",
          "type": "bool"
        }
      ],
      "name": "setPaused",
      "outputs": [],
      "payable": false,
      "stateMutability": "nonpayable",
      "type": "function"
    },
    {
      "constant": true,
      "inputs": [
        {
          "internalType": "bytes4",
          "name": "interfaceId",
          "type": "bytes4"
        }
      ],
      "name": "supportsInterface",
      "outputs": [
        {
          "internalType": "bool",
          "name": "",
          "type": "bool"
        }
      ],
      "payable": false,
      "stateMutability": "view",
      "type": "function"
    },
    {
      "constant": true,
      "inputs": [
        {
          "internalType": "uint256",
          "name": "index",
          "type": "uint256"
        }
      ],
      "name": "tokenByIndex",
      "outputs": [
        {
          "internalType": "uint256",
          "name": "",
          "type": "uint256"
        }
      ],
      "payable": false,
      "stateMutability": "view",
      "type": "function"
    },
    {
      "constant": true,
      "inputs": [
        {
          "internalType": "address",
          "name": "owner",
          "type": "address"
        },
        {
          "internalType": "uint256",
          "name": "index",
          "type": "uint256"
        }
      ],
      "name": "tokenOfOwnerByIndex",
      "outputs": [
        {
          "internalType": "uint256",
          "name": "",
          "type": "uint256"
        }
      ],
      "payable": false,
      "stateMutability": "view",
      "type": "function"
    },
    {
      "constant": true,
      "inputs": [
        {
          "internalType": "uint256",
          "name": "tokenId",
          "type": "uint256"
        }
      ],
      "name": "tokenURI",
      "outputs": [
        {
          "internalType": "string",
          "name": "",
          "type": "string"
        }
      ],
      "payable": false,
      "stateMutability": "view",
      "type": "function"
    },
    {
      "constant": true,
      "inputs": [],
      "name": "totalSupply",
      "outputs": [
        {
          "internalType": "uint256",
          "name": "",
          "type": "uint256"
        }
      ],
      "payable": false,
      "stateMutability": "view",
      "type": "function"
    },
    {
      "constant": false,
      "inputs": [
        {
          "internalType": "address",
          "name": "from",
          "type": "address"
        },
        {
          "internalType": "address",
          "name": "to",
          "type": "address"
        },
        {
          "internalType": "uint256",
          "name": "tokenId",
          "type": "uint256"
        }
      ],
      "name": "transferFrom",
      "outputs": [],
      "payable": false,
      "stateMutability": "nonpayable",
      "type": "function"
    },
    {
      "constant": false,
      "inputs": [
        {
          "internalType": "address",
          "name": "newOwner",
          "type": "address"
        },
        {
          "internalType": "uint256",
          "name": "timestamp",
          "type": "uint256"
        }
      ],
      "name": "transferOwnership",
      "outputs": [],
      "payable": false,
      "stateMutability": "nonpayable",
      "type": "function"
    },
    {
      "constant": false,
      "inputs": [
        {
          "internalType": "uint256",
          "name": "tokenId",
          "type": "uint256"
        },
        {
          "components": [
            {
              "components": [
                {
                  "internalType": "uint256",
                  "name": "X",
                  "type": "uint256"
                },
                {
                  "internalType": "uint256",
                  "name": "Y",
                  "type": "uint256"
                }
              ],
              "internalType": "struct Pairing.G1Point",
              "name": "a",
              "type": "tuple"
            },
            {
              "components": [
                {
                  "internalType": "uint256[2]",
                  "name": "X",
                  "type": "uint256[2]"
                },
                {
                  "internalType": "uint256[2]",
                  "name": "Y",
                  "type": "uint256[2]"
                }
              ],
              "internalType": "struct Pairing.G2Point",
              "name": "b",
              "type": "tuple"
            },
            {
              "components": [
                {
                  "internalType": "uint256",
                  "name": "X",
                  "type": "uint256"
                },
                {
                  "internalType": "uint256",
                  "name": "Y",
                  "type": "uint256"
                }
              ],
              "internalType": "struct Pairing.G1Point",
              "name": "c",
              "type": "tuple"
            }
          ],
          "internalType": "struct Verifier.Proof",
          "name": "proof",
          "type": "tuple"
        },
        {
          "internalType": "uint256[2]",
          "name": "input",
          "type": "uint256[2]"
        }
      ],
      "name": "addSolution",
      "outputs": [
        {
          "internalType": "bool",
          "name": "",
          "type": "bool"
        }
      ],
      "payable": false,
      "stateMutability": "nonpayable",
      "type": "function"
    },
    {
      "constant": false,
      "inputs": [
        {
          "internalType": "address",
          "name": "solutionAddress",
          "type": "address"
        },
        {
          "internalType": "uint256",
          "name": "tokenId",
          "type": "uint256"
        },
        {
          "components": [
            {
              "components": [
                {
                  "internalType": "uint256",
                  "name": "X",
                  "type": "uint256"
                },
                {
                  "internalType": "uint256",
                  "name": "Y",
                  "type": "uint256"
                }
              ],
              "internalType": "struct Pairing.G1Point",
              "name": "a",
              "type": "tuple"
            },
            {
              "components": [
                {
                  "internalType": "uint256[2]",
                  "name": "X",
                  "type": "uint256[2]"
                },
                {
                  "internalType": "uint256[2]",
                  "name": "Y",
                  "type": "uint256[2]"
                }
              ],
              "internalType": "struct Pairing.G2Point",
              "name": "b",
              "type": "tuple"
            },
            {
              "components": [
                {
                  "internalType": "uint256",
                  "name": "X",
                  "type": "uint256"
                },
                {
                  "internalType": "uint256",
                  "name": "Y",
                  "type": "uint256"
                }
              ],
              "internalType": "struct Pairing.G1Point",
              "name": "c",
              "type": "tuple"
            }
          ],
          "internalType": "struct Verifier.Proof",
          "name": "proof",
          "type": "tuple"
        },
        {
          "internalType": "uint256[2]",
          "name": "input",
          "type": "uint256[2]"
        }
      ],
      "name": "verifyAndMint",
      "outputs": [],
      "payable": false,
      "stateMutability": "nonpayable",
      "type": "function"
    }
  ],
  "bytecode": "0x60806040523480156200001157600080fd5b5060405162003f3138038062003f3183398181016040526200003791908101906200036b565b818181816040518060600160405280603f815260200162003ef2603f9139336000806101000a81548173ffffffffffffffffffffffffffffffffffffffff021916908373ffffffffffffffffffffffffffffffffffffffff16021790555060008060146101000a81548160ff021916908315150217905550620000c76301ffc9a760e01b620001a960201b60201c565b620000df6380ac58cd60e01b620001a960201b60201c565b620000f763780e9d6360e01b620001a960201b60201c565b82600f90805190602001906200010f92919062000249565b5081601090805190602001906200012892919062000249565b5080601190805190602001906200014192919062000249565b506200015a635b5e139f60e01b620001a960201b60201c565b505050505082601360006101000a81548173ffffffffffffffffffffffffffffffffffffffff021916908373ffffffffffffffffffffffffffffffffffffffff160217905550505050620004d2565b63ffffffff60e01b817bffffffffffffffffffffffffffffffffffffffffffffffffffffffff19161415620001dd57600080fd5b6001806000837bffffffffffffffffffffffffffffffffffffffffffffffffffffffff19167bffffffffffffffffffffffffffffffffffffffffffffffffffffffff1916815260200190815260200160002060006101000a81548160ff02191690831515021790555050565b828054600181600116156101000203166002900490600052602060002090601f016020900481019282601f106200028c57805160ff1916838001178555620002bd565b82800160010185558215620002bd579182015b82811115620002bc5782518255916020019190600101906200029f565b5b509050620002cc9190620002d0565b5090565b620002f591905b80821115620002f1576000816000905550600101620002d7565b5090565b90565b6000815190506200030981620004b8565b92915050565b600082601f8301126200032157600080fd5b815162000338620003328262000421565b620003f3565b915080825260208301602083018583830111156200035557600080fd5b6200036283828462000482565b50505092915050565b6000806000606084860312156200038157600080fd5b60006200039186828701620002f8565b935050602084015167ffffffffffffffff811115620003af57600080fd5b620003bd868287016200030f565b925050604084015167ffffffffffffffff811115620003db57600080fd5b620003e9868287016200030f565b9150509250925092565b6000604051905081810181811067ffffffffffffffff821117156200041757600080fd5b8060405250919050565b600067ffffffffffffffff8211156200043957600080fd5b601f19601f8301169050602081019050919050565b60006200045b8262000462565b9050919050565b600073ffffffffffffffffffffffffffffffffffffffff82169050919050565b60005b83811015620004a257808201518184015260208101905062000485565b83811115620004b2576000848401525b50505050565b620004c3816200044e565b8114620004cf57600080fd5b50565b613a1080620004e26000396000f3fe608060405234801561001057600080fd5b50600436106101735760003560e01c806342842e0e116100de578063893d20e811610097578063c87b56dd11610071578063c87b56dd1461045a578063e985e9c51461048a578063f4da9a15146104ba578063fcf9516a146104ea57610173565b8063893d20e814610404578063a22cb46514610422578063b88d4fde1461043e57610173565b806342842e0e1461031c5780634f6ccce7146103385780636352211e1461036857806370a082311461039857806375d0c0dc146103c85780637a0101a2146103e657610173565b806323b872dd1161013057806323b872dd1461024a57806327dc297e146102665780632b2afaa1146102825780632f745c59146102a057806338bbfa50146102d057806340c10f19146102ec57610173565b806301ffc9a714610178578063081812fc146101a8578063095ea7b3146101d85780630a276680146101f457806316c38b3c1461021057806318160ddd1461022c575b600080fd5b610192600480360361018d9190810190612c38565b610506565b60405161019f9190613500565b60405180910390f35b6101c260048036036101bd9190810190612c8a565b61056e565b6040516101cf9190613470565b60405180910390f35b6101f260048036036101ed9190810190612a72565b6105b0565b005b61020e60048036036102099190810190612a72565b6107bc565b005b61022a60048036036102259190810190612b13565b610911565b005b6102346109bd565b60405161024191906136c8565b60405180910390f35b610264600480360361025f919081019061296c565b6109ca565b005b610280600480360361027b9190810190612b65565b610a23565b005b61028a610a66565b604051610297919061351b565b60405180910390f35b6102ba60048036036102b59190810190612a72565b610b08565b6040516102c791906136c8565b60405180910390f35b6102ea60048036036102e59190810190612bb9565b610b7b565b005b61030660048036036103019190810190612a72565b610b80565b6040516103139190613500565b60405180910390f35b6103366004803603610331919081019061296c565b610c2e565b005b610352600480360361034d9190810190612c8a565b610c4e565b60405161035f91906136c8565b60405180910390f35b610382600480360361037d9190810190612c8a565b610c82565b60405161038f9190613470565b60405180910390f35b6103b260048036036103ad9190810190612907565b610cbf565b6040516103bf91906136c8565b60405180910390f35b6103d0610d0f565b6040516103dd919061351b565b60405180910390f35b6103ee610db1565b6040516103fb919061351b565b60405180910390f35b61040c610e53565b6040516104199190613470565b60405180910390f35b61043c60048036036104379190810190612a36565b610e7c565b005b610458600480360361045391908101906129bb565b610fb2565b005b610474600480360361046f9190810190612c8a565b610fd8565b604051610481919061351b565b60405180910390f35b6104a4600480360361049f9190810190612930565b6110d5565b6040516104b19190613500565b60405180910390f35b6104d460048036036104cf9190810190612cb3565b611169565b6040516104e19190613500565b60405180910390f35b61050460048036036104ff9190810190612aae565b6113b5565b005b600060016000837bffffffffffffffffffffffffffffffffffffffffffffffffffffffff19167bffffffffffffffffffffffffffffffffffffffffffffffffffffffff1916815260200190815260200160002060009054906101000a900460ff169050919050565b6000806003600084815260200190815260200160002060009054906101000a900473ffffffffffffffffffffffffffffffffffffffff16905080915050919050565b60006002600083815260200190815260200160002060009054906101000a900473ffffffffffffffffffffffffffffffffffffffff1690508273ffffffffffffffffffffffffffffffffffffffff168173ffffffffffffffffffffffffffffffffffffffff161415610657576040517f08c379a000000000000000000000000000000000000000000000000000000000815260040161064e9061359d565b60405180910390fd5b3373ffffffffffffffffffffffffffffffffffffffff166002600084815260200190815260200160002060009054906101000a900473ffffffffffffffffffffffffffffffffffffffff1673ffffffffffffffffffffffffffffffffffffffff161415806106cb57506106ca81846110d5565b5b61070a576040517f08c379a0000000000000000000000000000000000000000000000000000000008152600401610701906135fd565b60405180910390fd5b826003600084815260200190815260200160002060006101000a81548173ffffffffffffffffffffffffffffffffffffffff021916908373ffffffffffffffffffffffffffffffffffffffff160217905550813373ffffffffffffffffffffffffffffffffffffffff168473ffffffffffffffffffffffffffffffffffffffff167f8c5be1e5ebec7d5bd14f71427d1e84f3dd0314c0f7b2291e5b200ac8c7c3b92560405160405180910390a4505050565b6000809054906101000a900473ffffffffffffffffffffffffffffffffffffffff1673ffffffffffffffffffffffffffffffffffffffff163373ffffffffffffffffffffffffffffffffffffffff161461084b576040517f08c379a00000000000000000000000000000000000000000000000000000000081526004016108429061363d565b60405180910390fd5b61085482611516565b15610894576040517f08c379a000000000000000000000000000000000000000000000000000000000815260040161088b9061361d565b60405180910390fd5b816000806101000a81548173ffffffffffffffffffffffffffffffffffffffff021916908373ffffffffffffffffffffffffffffffffffffffff1602179055507ffc8f2d6996e2b706fa4cfb81cb10a53534b07f2010b2488488508f8751f5537582826040516109059291906134d7565b60405180910390a15050565b6000809054906101000a900473ffffffffffffffffffffffffffffffffffffffff1673ffffffffffffffffffffffffffffffffffffffff163373ffffffffffffffffffffffffffffffffffffffff16146109a0576040517f08c379a00000000000000000000000000000000000000000000000000000000081526004016109979061363d565b60405180910390fd5b80600060146101000a81548160ff02191690831515021790555050565b6000600880549050905090565b6109d43382611561565b610a13576040517f08c379a0000000000000000000000000000000000000000000000000000000008152600401610a0a9061355d565b60405180910390fd5b610a1e8383836115f6565b505050565b610a62828260006040519080825280601f01601f191660200182016040528015610a5c5781602001600182028038833980820191505090505b50610b7b565b5050565b606060108054600181600116156101000203166002900480601f016020809104026020016040519081016040528092919081815260200182805460018160011615610100020316600290048015610afe5780601f10610ad357610100808354040283529160200191610afe565b820191906000526020600020905b815481529060010190602001808311610ae157829003601f168201915b5050505050905090565b6000610b1383610cbf565b8210610b1e57600080fd5b600660008473ffffffffffffffffffffffffffffffffffffffff1673ffffffffffffffffffffffffffffffffffffffff1681526020019081526020016000208281548110610b6857fe5b9060005260206000200154905092915050565b505050565b60008060009054906101000a900473ffffffffffffffffffffffffffffffffffffffff1673ffffffffffffffffffffffffffffffffffffffff163373ffffffffffffffffffffffffffffffffffffffff1614610c11576040517f08c379a0000000000000000000000000000000000000000000000000000000008152600401610c089061363d565b60405180910390fd5b610c1b838361161a565b610c248261163b565b6001905092915050565b610c4983838360405180602001604052806000815250610fb2565b505050565b6000610c586109bd565b8210610c6357600080fd5b60088281548110610c7057fe5b90600052602060002001549050919050565b60006002600083815260200190815260200160002060009054906101000a900473ffffffffffffffffffffffffffffffffffffffff169050919050565b6000610d08600460008473ffffffffffffffffffffffffffffffffffffffff1673ffffffffffffffffffffffffffffffffffffffff168152602001908152602001600020611759565b9050919050565b6060600f8054600181600116156101000203166002900480601f016020809104026020016040519081016040528092919081815260200182805460018160011615610100020316600290048015610da75780601f10610d7c57610100808354040283529160200191610da7565b820191906000526020600020905b815481529060010190602001808311610d8a57829003601f168201915b5050505050905090565b606060118054600181600116156101000203166002900480601f016020809104026020016040519081016040528092919081815260200182805460018160011615610100020316600290048015610e495780601f10610e1e57610100808354040283529160200191610e49565b820191906000526020600020905b815481529060010190602001808311610e2c57829003601f168201915b5050505050905090565b60008060009054906101000a900473ffffffffffffffffffffffffffffffffffffffff16905090565b3373ffffffffffffffffffffffffffffffffffffffff168273ffffffffffffffffffffffffffffffffffffffff161415610eb557600080fd5b80600560003373ffffffffffffffffffffffffffffffffffffffff1673ffffffffffffffffffffffffffffffffffffffff16815260200190815260200160002060008473ffffffffffffffffffffffffffffffffffffffff1673ffffffffffffffffffffffffffffffffffffffff16815260200190815260200160002060006101000a81548160ff0219169083151502179055508173ffffffffffffffffffffffffffffffffffffffff163373ffffffffffffffffffffffffffffffffffffffff167f17307eab39ab6107e8899845ad3d59bd9653f200f220920489ca2b5937696c3183604051610fa69190613500565b60405180910390a35050565b610fbd8484846109ca565b610fc984848484611767565b610fd257600080fd5b50505050565b6060610fe38261187e565b611022576040517f08c379a00000000000000000000000000000000000000000000000000000000081526004016110199061365d565b60405180910390fd5b601260008381526020019081526020016000208054600181600116156101000203166002900480601f0160208091040260200160405190810160405280929190818152602001828054600181600116156101000203166002900480156110c95780601f1061109e576101008083540402835291602001916110c9565b820191906000526020600020905b8154815290600101906020018083116110ac57829003601f168201915b50505050509050919050565b6000600560008473ffffffffffffffffffffffffffffffffffffffff1673ffffffffffffffffffffffffffffffffffffffff16815260200190815260200160002060008373ffffffffffffffffffffffffffffffffffffffff1673ffffffffffffffffffffffffffffffffffffffff16815260200190815260200160002060009054906101000a900460ff16905092915050565b600080601360009054906101000a900473ffffffffffffffffffffffffffffffffffffffff1673ffffffffffffffffffffffffffffffffffffffff166343cd76fc85856040518363ffffffff1660e01b81526004016111c992919061369d565b60206040518083038186803b1580156111e157600080fd5b505afa1580156111f5573d6000803e3d6000fd5b505050506040513d601f19601f820116820180604052506112199190810190612b3c565b90508061125b576040517f08c379a00000000000000000000000000000000000000000000000000000000081526004016112529061353d565b60405180910390fd5b6000858560000151600001518660000151602001518760200151600001518860200151602001518960400151600001518a60400151602001518a6040516020016112ac9897969594939291906133de565b6040516020818303038152906040528051906020012090506112cc6124e0565b60405180606001604052808881526020013373ffffffffffffffffffffffffffffffffffffffff16815260200183815250905080601560008481526020019081526020016000206000820151816000015560208201518160010160006101000a81548173ffffffffffffffffffffffffffffffffffffffff021916908373ffffffffffffffffffffffffffffffffffffffff160217905550604082015181600201559050507f64a55044d1f2eddebe1b90e8e2853e8e96931cefadbfa0b2ceb34bee36061941876040516113a091906136c8565b60405180910390a18293505050509392505050565b600083836000015160000151846000015160200151856020015160000151866020015160200151876040015160000151886040015160200151886040516020016114069897969594939291906133de565b6040516020818303038152906040528051906020012090506114266124e0565b60156000838152602001908152602001600020604051806060016040529081600082015481526020016001820160009054906101000a900473ffffffffffffffffffffffffffffffffffffffff1673ffffffffffffffffffffffffffffffffffffffff1673ffffffffffffffffffffffffffffffffffffffff168152602001600282015481525050905060008160000151146114f7576040517f08c379a00000000000000000000000000000000000000000000000000000000081526004016114ee906135dd565b60405180910390fd5b611502858585611169565b5061150d8686610b80565b50505050505050565b60008060007fc5d2460186f7233c927e7db2dcc703c0e500b653ca82273b7bfad8045d85a47060001b9050833f915080821415801561155857506000801b8214155b92505050919050565b60008061156d83610c82565b90508073ffffffffffffffffffffffffffffffffffffffff168473ffffffffffffffffffffffffffffffffffffffff1614806115dc57508373ffffffffffffffffffffffffffffffffffffffff166115c48461056e565b73ffffffffffffffffffffffffffffffffffffffff16145b806115ed57506115ec81856110d5565b5b91505092915050565b6116018383836118f0565b61160b8382611b1f565b6116158282611cbd565b505050565b6116248282611d84565b61162e8282611cbd565b61163781611ec5565b5050565b6116448161187e565b611683576040517f08c379a000000000000000000000000000000000000000000000000000000000815260040161167a9061365d565b60405180910390fd5b61172f60118054600181600116156101000203166002900480601f01602080910402602001604051908101604052809291908181526020018280546001816001161561010002031660029004801561171c5780601f106116f15761010080835404028352916020019161171c565b820191906000526020600020905b8154815290600101906020018083116116ff57829003601f168201915b505050505061172a83611f11565b61203e565b60126000838152602001908152602001600020908051906020019061175592919061251a565b5050565b600081600001549050919050565b60006117888473ffffffffffffffffffffffffffffffffffffffff16611516565b6117955760019050611876565b60008473ffffffffffffffffffffffffffffffffffffffff1663150b7a02338887876040518563ffffffff1660e01b81526004016117d6949392919061348b565b602060405180830381600087803b1580156117f057600080fd5b505af1158015611804573d6000803e3d6000fd5b505050506040513d601f19601f820116820180604052506118289190810190612c61565b905063150b7a0260e01b7bffffffffffffffffffffffffffffffffffffffffffffffffffffffff1916817bffffffffffffffffffffffffffffffffffffffffffffffffffffffff1916149150505b949350505050565b6000806002600084815260200190815260200160002060009054906101000a900473ffffffffffffffffffffffffffffffffffffffff169050600073ffffffffffffffffffffffffffffffffffffffff168173ffffffffffffffffffffffffffffffffffffffff161415915050919050565b8273ffffffffffffffffffffffffffffffffffffffff1661191082610c82565b73ffffffffffffffffffffffffffffffffffffffff1614611966576040517f08c379a000000000000000000000000000000000000000000000000000000000815260040161195d906135bd565b60405180910390fd5b600073ffffffffffffffffffffffffffffffffffffffff168273ffffffffffffffffffffffffffffffffffffffff1614156119d6576040517f08c379a00000000000000000000000000000000000000000000000000000000081526004016119cd9061367d565b60405180910390fd5b6119df81612082565b611a26600460008473ffffffffffffffffffffffffffffffffffffffff1673ffffffffffffffffffffffffffffffffffffffff168152602001908152602001600020612140565b611a6d600460008573ffffffffffffffffffffffffffffffffffffffff1673ffffffffffffffffffffffffffffffffffffffff168152602001908152602001600020612156565b816002600083815260200190815260200160002060006101000a81548173ffffffffffffffffffffffffffffffffffffffff021916908373ffffffffffffffffffffffffffffffffffffffff160217905550808273ffffffffffffffffffffffffffffffffffffffff168473ffffffffffffffffffffffffffffffffffffffff167fddf252ad1be2c89b69c2b068fc378daa952ba7f163c4a11628f55a4df523b3ef60405160405180910390a4505050565b6000611b776001600660008673ffffffffffffffffffffffffffffffffffffffff1673ffffffffffffffffffffffffffffffffffffffff1681526020019081526020016000208054905061217990919063ffffffff16565b9050600060076000848152602001908152602001600020549050818114611c64576000600660008673ffffffffffffffffffffffffffffffffffffffff1673ffffffffffffffffffffffffffffffffffffffff1681526020019081526020016000208381548110611be457fe5b9060005260206000200154905080600660008773ffffffffffffffffffffffffffffffffffffffff1673ffffffffffffffffffffffffffffffffffffffff1681526020019081526020016000208381548110611c3c57fe5b9060005260206000200181905550816007600083815260200190815260200160002081905550505b600660008573ffffffffffffffffffffffffffffffffffffffff1673ffffffffffffffffffffffffffffffffffffffff168152602001908152602001600020805480919060019003611cb6919061259a565b5050505050565b600660008373ffffffffffffffffffffffffffffffffffffffff1673ffffffffffffffffffffffffffffffffffffffff168152602001908152602001600020805490506007600083815260200190815260200160002081905550600660008373ffffffffffffffffffffffffffffffffffffffff1673ffffffffffffffffffffffffffffffffffffffff1681526020019081526020016000208190806001815401808255809150509060018203906000526020600020016000909192909190915055505050565b611d8d8161187e565b15611dcd576040517f08c379a0000000000000000000000000000000000000000000000000000000008152600401611dc49061357d565b60405180910390fd5b816002600083815260200190815260200160002060006101000a81548173ffffffffffffffffffffffffffffffffffffffff021916908373ffffffffffffffffffffffffffffffffffffffff160217905550611e66600460008473ffffffffffffffffffffffffffffffffffffffff1673ffffffffffffffffffffffffffffffffffffffff168152602001908152602001600020612140565b808273ffffffffffffffffffffffffffffffffffffffff163373ffffffffffffffffffffffffffffffffffffffff167fddf252ad1be2c89b69c2b068fc378daa952ba7f163c4a11628f55a4df523b3ef60405160405180910390a45050565b6008805490506009600083815260200190815260200160002081905550600881908060018154018082558091505090600182039060005260206000200160009091929091909150555050565b60606000821415611f59576040518060400160405280600181526020017f30000000000000000000000000000000000000000000000000000000000000008152509050612039565b600082905060005b60008214611f83578080600101915050600a8281611f7b57fe5b049150611f61565b6060816040519080825280601f01601f191660200182016040528015611fb85781602001600182028038833980820191505090505b50905060006001830390505b6000861461203157600a8681611fd657fe5b0660300160f81b82828060019003935081518110611ff057fe5b60200101907effffffffffffffffffffffffffffffffffffffffffffffffffffffffffffff1916908160001a905350600a868161202957fe5b049550611fc4565b819450505050505b919050565b606061207a83836040518060200160405280600081525060405180602001604052806000815250604051806020016040528060008152506121c3565b905092915050565b600073ffffffffffffffffffffffffffffffffffffffff166003600083815260200190815260200160002060009054906101000a900473ffffffffffffffffffffffffffffffffffffffff1673ffffffffffffffffffffffffffffffffffffffff161461213d5760006003600083815260200190815260200160002060006101000a81548173ffffffffffffffffffffffffffffffffffffffff021916908373ffffffffffffffffffffffffffffffffffffffff1602179055505b50565b6001816000016000828254019250508190555050565b61216e6001826000015461217990919063ffffffff16565b816000018190555050565b60006121bb83836040518060400160405280601e81526020017f536166654d6174683a207375627472616374696f6e206f766572666c6f770000815250612485565b905092915050565b6060808690506060869050606086905060608690506060869050606081518351855187518951010101016040519080825280601f01601f19166020018201604052801561221f5781602001600182028038833980820191505090505b509050606081905060008090506000809050600090505b88518110156122a45788818151811061224b57fe5b602001015160f81c60f81b83838060010194508151811061226857fe5b60200101907effffffffffffffffffffffffffffffffffffffffffffffffffffffffffffff1916908160001a9053508080600101915050612236565b600090505b8751811015612317578781815181106122be57fe5b602001015160f81c60f81b8383806001019450815181106122db57fe5b60200101907effffffffffffffffffffffffffffffffffffffffffffffffffffffffffffff1916908160001a90535080806001019150506122a9565b600090505b865181101561238a5786818151811061233157fe5b602001015160f81c60f81b83838060010194508151811061234e57fe5b60200101907effffffffffffffffffffffffffffffffffffffffffffffffffffffffffffff1916908160001a905350808060010191505061231c565b600090505b85518110156123fd578581815181106123a457fe5b602001015160f81c60f81b8383806001019450815181106123c157fe5b60200101907effffffffffffffffffffffffffffffffffffffffffffffffffffffffffffff1916908160001a905350808060010191505061238f565b600090505b84518110156124705784818151811061241757fe5b602001015160f81c60f81b83838060010194508151811061243457fe5b60200101907effffffffffffffffffffffffffffffffffffffffffffffffffffffffffffff1916908160001a9053508080600101915050612402565b82995050505050505050505095945050505050565b60008383111582906124cd576040517f08c379a00000000000000000000000000000000000000000000000000000000081526004016124c4919061351b565b60405180910390fd5b5060008385039050809150509392505050565b604051806060016040528060008152602001600073ffffffffffffffffffffffffffffffffffffffff168152602001600080191681525090565b828054600181600116156101000203166002900490600052602060002090601f016020900481019282601f1061255b57805160ff1916838001178555612589565b82800160010185558215612589579182015b8281111561258857825182559160200191906001019061256d565b5b50905061259691906125c6565b5090565b8154818355818111156125c1578183600052602060002091820191016125c091906125c6565b5b505050565b6125e891905b808211156125e45760008160009055506001016125cc565b5090565b90565b6000813590506125fa8161395a565b92915050565b600082601f83011261261157600080fd5b600261262461261f82613710565b6136e3565b9150818385602084028201111561263a57600080fd5b60005b8381101561266a578161265088826128f2565b84526020840193506020830192505060018101905061263d565b5050505092915050565b600082601f83011261268557600080fd5b600261269861269382613732565b6136e3565b915081838560208402820111156126ae57600080fd5b60005b838110156126de57816126c488826128f2565b8452602084019350602083019250506001810190506126b1565b5050505092915050565b6000813590506126f781613971565b92915050565b60008151905061270c81613971565b92915050565b60008135905061272181613988565b92915050565b6000813590506127368161399f565b92915050565b60008151905061274b8161399f565b92915050565b600082601f83011261276257600080fd5b813561277561277082613754565b6136e3565b9150808252602083016020830185838301111561279157600080fd5b61279c8382846138fd565b50505092915050565b600082601f8301126127b657600080fd5b81356127c96127c482613780565b6136e3565b915080825260208301602083018583830111156127e557600080fd5b6127f08382846138fd565b50505092915050565b60006040828403121561280b57600080fd5b61281560406136e3565b90506000612825848285016128f2565b6000830152506020612839848285016128f2565b60208301525092915050565b60006080828403121561285757600080fd5b61286160406136e3565b9050600061287184828501612600565b600083015250604061288584828501612600565b60208301525092915050565b600061010082840312156128a457600080fd5b6128ae60606136e3565b905060006128be848285016127f9565b60008301525060406128d284828501612845565b60208301525060c06128e6848285016127f9565b60408301525092915050565b600081359050612901816139b6565b92915050565b60006020828403121561291957600080fd5b6000612927848285016125eb565b91505092915050565b6000806040838503121561294357600080fd5b6000612951858286016125eb565b9250506020612962858286016125eb565b9150509250929050565b60008060006060848603121561298157600080fd5b600061298f868287016125eb565b93505060206129a0868287016125eb565b92505060406129b1868287016128f2565b9150509250925092565b600080600080608085870312156129d157600080fd5b60006129df878288016125eb565b94505060206129f0878288016125eb565b9350506040612a01878288016128f2565b925050606085013567ffffffffffffffff811115612a1e57600080fd5b612a2a87828801612751565b91505092959194509250565b60008060408385031215612a4957600080fd5b6000612a57858286016125eb565b9250506020612a68858286016126e8565b9150509250929050565b60008060408385031215612a8557600080fd5b6000612a93858286016125eb565b9250506020612aa4858286016128f2565b9150509250929050565b6000806000806101808587031215612ac557600080fd5b6000612ad3878288016125eb565b9450506020612ae4878288016128f2565b9350506040612af587828801612891565b925050610140612b0787828801612674565b91505092959194509250565b600060208284031215612b2557600080fd5b6000612b33848285016126e8565b91505092915050565b600060208284031215612b4e57600080fd5b6000612b5c848285016126fd565b91505092915050565b60008060408385031215612b7857600080fd5b6000612b8685828601612712565b925050602083013567ffffffffffffffff811115612ba357600080fd5b612baf858286016127a5565b9150509250929050565b600080600060608486031215612bce57600080fd5b6000612bdc86828701612712565b935050602084013567ffffffffffffffff811115612bf957600080fd5b612c05868287016127a5565b925050604084013567ffffffffffffffff811115612c2257600080fd5b612c2e86828701612751565b9150509250925092565b600060208284031215612c4a57600080fd5b6000612c5884828501612727565b91505092915050565b600060208284031215612c7357600080fd5b6000612c818482850161273c565b91505092915050565b600060208284031215612c9c57600080fd5b6000612caa848285016128f2565b91505092915050565b60008060006101608486031215612cc957600080fd5b6000612cd7868287016128f2565b9350506020612ce886828701612891565b925050610120612cfa86828701612674565b9150509250925092565b6000612d10838361339a565b60208301905092915050565b6000612d2883836133b8565b60208301905092915050565b612d3d816138c7565b82525050565b612d4c81613849565b82525050565b612d5b816137cb565b612d658184613811565b9250612d70826137b6565b8060005b83811015612da1578151612d888782612d04565b9650612d93836137f9565b925050600181019050612d74565b505050505050565b612db2816137cb565b612dbc818461381c565b9250612dc7826137b6565b8060005b83811015612df8578151612ddf8782612d1c565b9650612dea836137f9565b925050600181019050612dcb565b505050505050565b612e09816137c0565b612e138184613806565b9250612e1e826137ac565b8060005b83811015612e4f578151612e368782612d04565b9650612e41836137ec565b925050600181019050612e22565b505050505050565b612e60816137c0565b612e6a818461381c565b9250612e75826137ac565b8060005b83811015612ea6578151612e8d8782612d1c565b9650612e98836137ec565b925050600181019050612e79565b505050505050565b612eb78161385b565b82525050565b6000612ec8826137d6565b612ed28185613827565b9350612ee281856020860161390c565b612eeb81613949565b840191505092915050565b6000612f01826137e1565b612f0b8185613838565b9350612f1b81856020860161390c565b612f2481613949565b840191505092915050565b6000612f3c601e83613838565b91507f536f6c7574696f6e20636f756c64206e6f7420626520766572696669656400006000830152602082019050919050565b6000612f7c602383613838565b91507f7472616e7366657246726f6d3a2069736e7420417070726f7665644f724f776e60008301527f65722100000000000000000000000000000000000000000000000000000000006020830152604082019050919050565b6000612fe2601c83613838565b91507f5f6d696e743a20746f6b656e20646f6573206e6f7420657869737421000000006000830152602082019050919050565b6000613022602583613838565b91507f617070726f76653a2061646472657373206973206f776e6572206f6620746f6b60008301527f656e4964210000000000000000000000000000000000000000000000000000006020830152604082019050919050565b6000613088602e83613838565b91507f7472616e7366657246726f6d20746f6b656e4f776e65723a20746f6b656e206460008301527f6f6573206e6f74206578697374210000000000000000000000000000000000006020830152604082019050919050565b60006130ee601383613838565b91507f496e64657820616c7265616479206578697374000000000000000000000000006000830152602082019050919050565b600061312e602583613838565b91507f617070726f76653a20746f6b656e206d73672073656e6465722069736e74206f60008301527f776e6572210000000000000000000000000000000000000000000000000000006020830152604082019050919050565b6000613194603083613838565b91507f7472616e736665724f776e6572536869703a206e65774f776e65722069736e2760008301527f742061207265616c2061646472657373000000000000000000000000000000006020830152604082019050919050565b60006131fa601c83613838565b91507f43616c6c6572206973206e6f7420636f6e7472616374206f776e6572000000006000830152602082019050919050565b600061323a602283613838565b91507f736574546f6b656e5552493a20746f6b656e20646f6573206e6f74206578697360008301527f74210000000000000000000000000000000000000000000000000000000000006020830152604082019050919050565b60006132a0602b83613838565b91507f5472616e7366657246726f6d3a206e65774f776e65722069736e27742061207260008301527f65616c20616464726573730000000000000000000000000000000000000000006020830152604082019050919050565b60408201600082015161330f600085018261339a565b506020820151613322602085018261339a565b50505050565b60808201600082015161333e6000850182612e00565b5060208201516133516040850182612e00565b50505050565b6101008201600082015161336e60008501826132f9565b5060208201516133816040850182613328565b50604082015161339460c08501826132f9565b50505050565b6133a3816138bd565b82525050565b6133b2816138bd565b82525050565b6133c1816138bd565b82525050565b6133d86133d3826138bd565b61393f565b82525050565b60006133ea828b6133c7565b6020820191506133fa828a6133c7565b60208201915061340a82896133c7565b60208201915061341a8288612e57565b60408201915061342a8287612e57565b60408201915061343a82866133c7565b60208201915061344a82856133c7565b60208201915061345a8284612da9565b6040820191508190509998505050505050505050565b60006020820190506134856000830184612d43565b92915050565b60006080820190506134a06000830187612d34565b6134ad6020830186612d43565b6134ba60408301856133a9565b81810360608301526134cc8184612ebd565b905095945050505050565b60006040820190506134ec6000830185612d43565b6134f960208301846133a9565b9392505050565b60006020820190506135156000830184612eae565b92915050565b600060208201905081810360008301526135358184612ef6565b905092915050565b6000602082019050818103600083015261355681612f2f565b9050919050565b6000602082019050818103600083015261357681612f6f565b9050919050565b6000602082019050818103600083015261359681612fd5565b9050919050565b600060208201905081810360008301526135b681613015565b9050919050565b600060208201905081810360008301526135d68161307b565b9050919050565b600060208201905081810360008301526135f6816130e1565b9050919050565b6000602082019050818103600083015261361681613121565b9050919050565b6000602082019050818103600083015261363681613187565b9050919050565b60006020820190508181036000830152613656816131ed565b9050919050565b600060208201905081810360008301526136768161322d565b9050919050565b6000602082019050818103600083015261369681613293565b9050919050565b6000610140820190506136b36000830185613357565b6136c1610100830184612d52565b9392505050565b60006020820190506136dd60008301846133a9565b92915050565b6000604051905081810181811067ffffffffffffffff8211171561370657600080fd5b8060405250919050565b600067ffffffffffffffff82111561372757600080fd5b602082029050919050565b600067ffffffffffffffff82111561374957600080fd5b602082029050919050565b600067ffffffffffffffff82111561376b57600080fd5b601f19601f8301169050602081019050919050565b600067ffffffffffffffff82111561379757600080fd5b601f19601f8301169050602081019050919050565b6000819050919050565b6000819050919050565b600060029050919050565b600060029050919050565b600081519050919050565b600081519050919050565b6000602082019050919050565b6000602082019050919050565b600081905092915050565b600081905092915050565b600081905092915050565b600082825260208201905092915050565b600082825260208201905092915050565b60006138548261389d565b9050919050565b60008115159050919050565b6000819050919050565b60007fffffffff0000000000000000000000000000000000000000000000000000000082169050919050565b600073ffffffffffffffffffffffffffffffffffffffff82169050919050565b6000819050919050565b60006138d2826138d9565b9050919050565b60006138e4826138eb565b9050919050565b60006138f68261389d565b9050919050565b82818337600083830152505050565b60005b8381101561392a57808201518184015260208101905061390f565b83811115613939576000848401525b50505050565b6000819050919050565b6000601f19601f8301169050919050565b61396381613849565b811461396e57600080fd5b50565b61397a8161385b565b811461398557600080fd5b50565b61399181613867565b811461399c57600080fd5b50565b6139a881613871565b81146139b357600080fd5b50565b6139bf816138bd565b81146139ca57600080fd5b5056fea365627a7a723158203edf2b52d7a12ceac91206b6c0e7c062daaaf26e656d076fcb5806f4d30d62496c6578706572696d656e74616cf564736f6c6343000510004068747470733a2f2f73332d75732d776573742d322e616d617a6f6e6177732e636f6d2f756461636974792d626c6f636b636861696e2f63617073746f6e652f",
  "source": "pragma solidity ^0.5.0;\npragma experimental ABIEncoderV2;\n\nimport \"./ERC721Mintable.sol\";\n// TODO define a contract call to the zokrates generated solidity contract <Verifier> or <renamedVerifier>\nimport \"./RESquareVerifier.sol\";\n\ncontract RESquareVerifier is Verifier {}\n\n// TODO define another contract named SolnSquareVerifier that inherits from your ERC721Mintable class\ncontract RESolnSquareVerifier is RealEstateERC721Token {\n\n    RESquareVerifier private verifierContract;\n\n    // TODO define a solutions struct that can hold an index & an address\n    struct Solution {\n        uint256 index;\n        address addr;\n        bytes32 hash;\n    }\n\n// TODO define an array of the above struct\n    Solution[] solutions;\n\n// TODO define a mapping to store unique solutions submitted\n    mapping (bytes32 => Solution) submittedSolution;\n\n\n// TODO Create an event to emit when a solution is added\n    event Added(uint256 tokenId);\n\n\n    constructor(address verifierAddress,\n        string memory name,\n        string memory symbol) RealEstateERC721Token(name, symbol) public\n    {\n        verifierContract = RESquareVerifier(verifierAddress);\n    }\n\n// TODO Create a function to add the solutions to the array and emit the event\n    // Define a function to check for proof and if verified set mapping\n    function addSolution(uint256 tokenId, Verifier.Proof memory proof, uint[2] memory input) public returns (bool)\n    {\n\n        bool solutionIsVerified = verifierContract.verifyTx(proof, input);\n\n        require(solutionIsVerified, \"Solution could not be verified\");\n\n        bytes32 hashedProof = keccak256(abi.encodePacked(tokenId, proof.a.X, proof.a.Y,\n            proof.b.X, proof.b.Y, proof.c.X, proof.c.Y, input));\n\n        //Set new item to items mapping\n        Solution memory newSolution = Solution(tokenId, msg.sender, hashedProof);\n        submittedSolution[hashedProof] = newSolution;\n\n        // Emit the appropriate event\n        emit Added(tokenId);\n\n        // return bool if it is verified\n        return solutionIsVerified;\n    }\n\n\n// TODO Create a function to mint new NFT only after the solution has been verified\n//  - make sure the solution is unique (has not been used before)\n//  - make sure you handle metadata as well as tokenSuplly\n    function verifyAndMint(address solutionAddress, uint256 tokenId, Verifier.Proof memory proof, uint[2] memory input) public\n    {\n        //Build hash to verify if unique\n        bytes32 hashedProofForLookup = keccak256(abi.encodePacked(tokenId, proof.a.X, proof.a.Y,\n            proof.b.X, proof.b.Y, proof.c.X, proof.c.Y, input));\n\n        //Make sure solution is unique\n        Solution memory existingSolution = submittedSolution[hashedProofForLookup];\n        require(existingSolution.index == 0, \"Index already exist\");// != address[0]);\n\n\n        //Add solution to contract\n        addSolution(tokenId, proof, input);\n\n        mint(solutionAddress, tokenId);\n\n\n        //verifyTx()\n    }\n\n}\n\n\n\n\n\n\n\n\n\n\n\n\n\n\n\n\n\n\n\n\n\n\n\n\n\n",
  "sourcePath": "/Users/shaneN/WebstormProjects/capstone/eth-contracts/contracts/RESolnSquareVerifier.sol",
  "compiler": {
    "name": "solc",
    "version": "0.5.16+commit.9c3226ce.Emscripten.clang"
  },
  "schemaVersion": "3.4.5",
  "updatedAt": "2022-04-11T22:13:26.739Z",
  "networkType": "ethereum",
  "devdoc": {
    "methods": {
      "isApprovedForAll(address,address)": {
        "details": "Tells whether an operator is approved by a given owner",
        "params": {
          "operator": "operator address which you want to query the approval of",
          "owner": "owner address which you want to query the approval of"
        },
        "return": "bool whether the given operator is approved by the given owner"
      },
      "setApprovalForAll(address,bool)": {
        "details": "Sets or unsets the approval of a given operator An operator is allowed to transfer all tokens of the sender on their behalf",
        "params": {
          "approved": "representing the status of the approval to be set",
          "to": "operator address to set the approval"
        }
      },
      "supportsInterface(bytes4)": {
        "details": "implement supportsInterface(bytes4) using a lookup table"
      },
      "tokenByIndex(uint256)": {
        "details": "Gets the token ID at a given index of all the tokens in this contract Reverts if the index is greater or equal to the total number of tokens",
        "params": {
          "index": "uint256 representing the index to be accessed of the tokens list"
        },
        "return": "uint256 token ID at the given index of the tokens list"
      },
      "tokenOfOwnerByIndex(address,uint256)": {
        "details": "Gets the token ID at a given index of the tokens list of the requested owner",
        "params": {
          "index": "uint256 representing the index to be accessed of the requested tokens list",
          "owner": "address owning the tokens list to be accessed"
        },
        "return": "uint256 token ID at the given index of the tokens list owned by the requested address"
      },
      "totalSupply()": {
        "details": "Gets the total amount of tokens stored by the contract",
        "return": "uint256 representing the total amount of tokens"
      }
    }
  },
  "userdoc": {
    "methods": {}
  }
}